S010000050726174696361322E737265631E
S11300003DC000004BC0000049C0000047C00000D4
S113001045C00000C8C2000041C000003FC000004D
S11300203DC000003BC0000039C0000037C00000E4
S113003035C0000033C0000031C000002FC00000F4
S1130040CCC200002BC0000029C0000027C0000063
S113005025C0000023C0000021C000001FC0000014
S11300601DC000001BC000009900A100A900B10040
S1130070B900C100C900D100D900E10011241FBE9C
S1130080CFEFD8E0DEBFCDBF21E0A0E0B1E001C0FA
S11300901D92A231B207E1F79ED0C2C2B1CF14B80B
S11300A015B817B818B88BEF8AB91BB884E08093D9
S11300B06800EDE6F0E080818460808314BC85E014
S11300C085BD81E080936E0080E88FBF0895813004
S11300D0910579F030F08230910599F00397C9F0D9
S11300E00895589A599A5B985C985D9A5E9A5F9ABB
S11300F00895589A599A5B9A5C985D9A5E9A5F9AA9
S11301000895589859985B985C985D9A5E985F9AA0
S11301100895589A59985B985C9A5D9A5E9A5F9A8A
S113012008958A30910508F054C0FC01EC5CFF4F3F
S113013071C2589A599A5B9A5C9A5D9A5E9A5F98D2
S11301400895599A5B9A58985C985D985E985F9860
S11301500895589A599A5F9A5D9A5C9A5B985E984A
S11301600895589A599A5B9A5C9A5F9A5D985E983A
S11301700895599A5B9A5E9A5F9A5C985D9858982C
S11301800895589A5E9A5F9A5B9A5C9A59985D981A
S11301900895589A5E9A5D9A5C9A5B9A5F9A599808
S11301A00895589A599A5B9A5C985D985E985F98FE
S11301B00895589A599A5B9A5C9A5D9A5E9A5F9AE6
S11301C00895589A599A5B9A5C9A5E9A5F9A5D98D8
S11301D008955F9A089563DF83E090E0909311019E
S11301E080931001C1E0D0E003E010E00F2EFBE0AB
S11301F0AF2EB12CF02D0F2EF5E0EF2EF12CF02DBB
S11302006894CC24C2F8D12C8091100190911101F2
S11302100397D1F7109211011092100180910E01F1
S113022090910F018830910520F410920D011092E5
S11302300C019C01285031092230310520F4D0935F
S11302400D01C0930C018A30910539F422E030E0AD
S113025030930D0120930C0120C09C012B503109D7
S11302602830310520F410930D0100930C019C01FA
S1130270235131092230310540F4D0920D01C0924E
S11302800C018531910561F503C08531910529F48F
S1130290F0920D01E0920C0118C020910C013091F4
S11302A00D012230310521F025303105C9F40DC08E
S11302B020910A0130910B01232B09F06CC10196A6
S11302C090930F0180930E0166C180910A01909171
S11302D00B01892B51F410920F0110920E0105C0ED
S11302E0019690930F0180930E01809100019091EB
S11302F00101892B89F58091020190910301892BD9
S1130300B1F4CE01E4DE4198409A80E395E7019789
S1130310F1F780E090E0DBDE4098419A80E395E7D6
S11303200197F1F7D0930301C093020115C0C801EE
S1130330CEDE4198409A80E395E70197F1F782E099
S113034090E0C5DE4098419A80E395E70197F1F784
S1130350109203011092020180910C0190910D0101
S11303608230910501F128F4009769F0019799F022
S11303704BCF8430910509F492C008F488C00597E6
S113038009F495C041CF289A29982A982B982C983B
S11303902D9A429A39CF289A29982A982B982C9AE0
S11303A02D98429A31CF289A29982A982B982C9ADA
S11303B02D9880910A0190910B01019709F024CFA7
S11303C0D0930101C0930001289A2B9A29982A9866
S11303D02C982D9842988091060190910701A1DEF6
S11303E04198409A80E395E70197F1F780910401E1
S11303F09091050196DE4098419A80E395E7019734
S1130400F1F78091040190910501029709F4429A51
S113041020910401309105012330310501F510923A
S11304200B0110920A01109205011092040110921E
S1130430070110920601589859985B985C985D984A
S11304405E985F9810930D0100930C01B0920F0118
S1130450A0920E011092010110920001D5CE80915C
S11304600601909107018930910559F41092070112
S1130470109206012F5F3F4F309305012093040132
S1130480C3CE01969093070180930601BDCE2A9AAC
S11304902B9A289829982C982D98429AB5CE299A67
S11304A02B9A28982A982C982D98429AADCE299A5E
S11304B02B9A28982A982C982D9880910A0190912B
S11304C00B01019709F0A0CED0930101C093000164
S11304D0289A2B9A29982A982C982D98429880919A
S11304E00601909107011DDE4198409A80E395E74B
S11304F00197F1F7809104019091050112DE409873
S1130500419A80E395E70197F1F780910401909176
S11305100501029709F4429A2091040130910501E2
S11305202930310501F510920B0110920A01109245
S113053005011092040110920701109206015898C7
S113054059985B985C985D985E985F9810920D013D
S113055010920C0110920F0110920E0110920101E1
S11305601092000151CE80910601909107018930CB
S1130570910559F410920701109206012F5F3F4F25
S113058030930501209304013FCE01969093070117
S11305908093060139CE8091000190910101892B4D
S11305A009F4A9CE00CF1F920F920FB60F92112417
S11305B08F939F9380910A0190910B01892B31F4C1
S11305C081E090E090930B0180930A019F918F91B9
S11305D00F900FBE0F901F9018951F920F920FB699
S11305E00F9211248F939F93809110019091110188
S11305F00196909311018093100181E090E0909313
S11306000901809308019F918F910F900FBE0F9065
S11306101F901895EE0FFF1F0590F491E02D09949B
S1070620F894FFCF78
S9030000FC
