:1000000033C000006DC0000037C0000035C00000E4
:1000100033C0000031C000002FC000002DC0000020
:100020002BC0000029C0000027C0000025C0000030
:1000300023C0000021C000001FC000001DC0000040
:100040001BC0000019C0000017C0000015C0000050
:1000500013C0000011C000000FC000000DC0000060
:100060000BC0000009C0000011241FBECFEFD8E074
:10007000DEBFCDBF31D064C0C3CF80E88FBF14B81E
:1000800015B817B818B814BC83E085BD8093690013
:10009000E89A08958230910599F028F4009751F07C
:1000A000019759F008958430910581F060F005972B
:1000B00081F0089588E085B9089584E185B90895AF
:1000C0008CE185B9089585E585B908958DE585B9F3
:1000D000089587EF85B90895D0DF81E088B9FECF14
:1000E0001F920F920FB60F9211242F933F934F93AD
:1000F0005F936F937F938F939F93AF93BF93EF9390
:10010000FF9386B59BEA899F912D1124969596952C
:10011000292F220F920F990F891B90E0BBDFFF91CF
:10012000EF91BF91AF919F918F917F916F915F916F
:100130004F913F912F910F900FBE0F901F901895E8
:04014000F894FFCF61
:00000001FF
