:1000000081C000009AC0000098C0000096C00000A7
:1000100094C0000092C0000090C000008EC000009C
:100020008CC000008AC0000088C0000086C00000AC
:1000300084C000009BC1000080C000007EC00000A2
:10004000E4C000007AC0000005C2000076C00000D5
:1000500074C00000F5C1000070C000006EC0000058
:100060006CC000006AC00000E300E600E900EC009C
:10007000EF00F200F500F800FB00FE0068026C02E1
:1000800070027402770277027702770277027702B2
:100090007702770277027702770277027702770298
:1000A0007702770277027702770277027702770288
:1000B0007702770277027702770277027702770278
:1000C0007702770277027702770277027702770268
:1000D00077027702770277027702770247024C02B3
:1000E000510277027702770277027702770277026E
:1000F00077025F0277027702770277027702770250
:100100007702560211241FBECFEFD8E0DEBFCDBF6D
:1001100011E0A0E0B1E0E2E8F8E002C005900D9245
:10012000AE31B107D9F721E0AEE1B1E001C01D92D7
:10013000A732B207E1F765D0A2C362CF10927C006C
:1001400087EC80937A0086E080937B00089580930B
:100150007C00EAE7F0E0808180648083808186FD16
:10016000FDCF809178009091790008958FEF84B948
:1001700015B883E187B918B88AEF8AB914BC83E04F
:1001800085BD81E080936E008093800095E0909320
:1001900081001092820080936F0083E38093B0000F
:1001A0008BE08093B1009093B3001092700080E8D0
:1001B0008FBF089515B890E08A30910508F5FC01CD
:1001C000EC5CFF4F47C38FE385B9089586E085B99E
:1001D00008958BE985B908958FE885B9089586EA71
:1001E00085B908958DEA85B908958DEB85B908958F
:1001F00087E085B908958FEB85B908958FEA85B9B1
:100200000895B4DF9BDF87D1FFCF1F920F920FB607
:100210000F9211242F933F934F935F936F937F938C
:100220008F939F93AF93BF93EF93FF9315B88091F4
:100230002501882319F04098419A02C0409A4198BC
:1002400080911E018130C1F138F0823009F43EC046
:10025000833009F46BC073C080912501882379F045
:100260002091210130912201ADECBCECF9D29695A0
:10027000879596958795969587959CDF60C0409168
:10028000210130912201242FADECBCECE9D29695EE
:10029000879596958795969587959C01220F331F94
:1002A000880F991F880F991F880F991F820F931F1E
:1002B000481B842F7FDF43C080912501882319F0DC
:1002C00083EA85B93CC089E385B939C080912501AD
:1002D000882379F020911F0130912001ADECBCEC16
:1002E000BFD296958795969587959695879562DF67
:1002F00026C040911F0130912001242FADECBCECB1
:10030000AFD29695879596958795969587959C01FA
:10031000220F331F880F991F880F991F880F991F6D
:10032000820F931F481B842F45DF09C08091250150
:10033000882319F088E385B902C08CE185B99091D2
:10034000250181E0892780932501FF91EF91BF91DD
:10035000AF919F918F917F916F915F914F913F915D
:100360002F910F900FBE0F901F9018951F920F9214
:100370000FB60F9211242F933F934F935F936F9378
:100380007F938F939F93AF93BF93CF93DF93EF931D
:10039000FF9382E090E0DBDE2CE3AC01249FC00100
:1003A000259F900D1124CFEFD3E0BE013FD2709373
:1003B00022016093210183E090E0C9DE22E3AC01D9
:1003C000249FC001259F900D1124BE012FD2709350
:1003D000200160931F0180912301909124010897CF
:1003E00048F080911E018F5F80931E0110922401BE
:1003F0001092230180911E01843030F010921E0172
:1004000010922401109223018091230190912401E4
:1004100001969093240180932301FF91EF91DF9146
:10042000CF91BF91AF919F918F917F916F915F918C
:100430004F913F912F910F900FBE0F901F901895E5
:100440001F920F920FB60F9211240F900FBE0F90B4
:100450001F9018951F920F920FB60F9211242F9391
:100460003F934F935F936F937F938F939F93AF933C
:10047000BF93EF93FF9363D08093260190E0FC013C
:10048000F197E434F10598F5E25CFF4FE3C198B1D0
:1004900080E1892788B92EC09BB184E089278BB978
:1004A00029C09BB180E189278BB924C080912101AB
:1004B000909122015CD080E091E049D01BC08091F6
:1004C0001F019091200153D084E091E040D012C0F0
:1004D00086E48093B3000EC08EEB8093B3000AC015
:1004E0008AEF8093B30006C01092B30003C088E087
:1004F00091E02DD0FF91EF91BF91AF919F918F919E
:100500007F916F915F914F913F912F910F900FBE0F
:100510000F901F9018951092C50087E68093C40035
:1005200088E98093C1008EE08093C2000895E0ECDA
:10053000F0E0908195FFFDCF8093C6000895E0EC38
:10054000F0E080818823ECF78091C6000895CF9376
:10055000DF93EC018881882329F02196E8DF8991D7
:100560008111FCCF8DE0E3DFDF91CF910895EF9211
:10057000FF920F931F93CF93DF93EC018436910585
:1005800020F48A30910560F054C0883E23E0920741
:1005900008F49DC0803137E2930708F4EDC03FC1F5
:1005A0009C01369527953695279536952795A5EC88
:1005B000B0E256D1929582958F7089279F708927D6
:1005C00048EE53E0849F9001859F300D949F300D3D
:1005D0001124C21BD30B9E0136952795369527957E
:1005E000ABE7B4E13DD19695879544E6489F9001ED
:1005F000499F300D1124C21BD30B9E01ADECBCEC06
:100600002FD19695879596958795969587959C0178
:10061000220F331F880F991F880F991F880F991F6A
:10062000820F931F9E01281B390BC901805D7FDF5C
:10063000F6C09C01369527953695279536952795D2
:10064000A5ECB0E20DD1929582958F7089279F70AD
:10065000892748EE53E0849F9001859F300D949F39
:10066000300D1124C21BD30B9E013695279536956C
:100670002795ABE7B4E1F4D08C011695079524E6F5
:10068000209FC001219F900D11248E01081B190B82
:100690009801ADECBCECE4D0EC01D695C795D695AD
:1006A000C795D695C7958C2F805D41DFCE01880F09
:1006B000991FCC0FDD1FCC0FDD1FCC0FDD1FC80F26
:1006C000D91FC8018C1B9D0B805D31DFA8C09C0128
:1006D000369527953695279536952795A5ECB0E262
:1006E000BFD07C01F694E794F694E794F694E794EF
:1006F000F694E79428EE33E0E29EC001E39E900D6D
:10070000F29E900D11247E01E81AF90A97013695A0
:10071000279536952795ABE7B4E1A2D08C011695C5
:10072000079580E3800F03DF24E6209FC001219F0F
:10073000900D1124E701C81BD90B9E01ADECBCEC58
:100740008FD08C01169507951695079516950795E8
:1007500080E3800FECDEC801880F991F000F111F86
:10076000000F111F000F111F080F191FCE01801B52
:10077000910B805DDCDE53C09C0136952795369544
:10078000279536952795A5ECB0E26AD08C01129595
:1007900002950F7001271F70012780E3800FC7DECD
:1007A00028EE33E0029FC001039F900D129F900D31
:1007B0001124C81BD90B9E01369527953695279590
:1007C000ABE7B4E14DD08C011695079580E3800F1F
:1007D000AEDE24E6209FC001219F900D1124C81B8E
:1007E000D90B9E01ADECBCEC3BD08C011695079566
:1007F000169507951695079580E3800F98DEC8013A
:10080000880F991F000F111F000F111F000F111FDC
:10081000080F191FCE01801B910B805D88DEDF91D0
:10082000CF911F910F91FF90EF900895AA1BBB1BD2
:1008300051E107C0AA1FBB1FA617B70710F0A61BE0
:10084000B70B881F991F5A95A9F780959095BC0101
:10085000CD010895EE0FFF1F0590F491E02D09944E
:10086000A29FB001B39FC001A39F700D811D1124F1
:10087000911DB29F700D811D1124911D0895F89452
:02088000FFCFA8
:1008820020B04300204C7500416C7465726E617437
:0E08920069766120496E76616C6964610000D0
:00000001FF
