:100000000C943C000C9459000C9459000C94590029
:100010000C9459000C9459000C9459000C945900FC
:100020000C9459000C9459000C9459000C945900EC
:100030000C9459000C9459000C9459000C945900DC
:100040000C9459000C9459000C9469000C945900BC
:100050000C9459000C9459000C9459000C945900BC
:100060000C9459000C9459008A0093009B00B9002D
:10007000D800E600F200FF0011241FBECFEFD8E049
:10008000DEBFCDBF11E0A0E0B1E0EAEAF5E002C0DA
:1000900005900D92AA33B107D9F721E0AAE3B1E0A8
:1000A00001C01D92AE33B207E1F70E945B000C94D1
:1000B000D3020C9400000E941B0180E88FBF8FE3E5
:1000C00084B915B8299A14BC15BC81E080936E00E0
:1000D000FFCF1F920F920FB60F9211242F933F93D1
:1000E0004F935F936F937F938F939F93AF93BF9340
:1000F000EF93FF930E942F0180933D0190E0FC015C
:10010000E156F109E830F10508F084C0EC5CFF4FDE
:100110000C94BE0285E091E00E94370181E080935B
:100120003C01299A77C082E091E00E943701109249
:100130003C0129986FC080913C01882309F46AC072
:1001400080910001909101018E31910508F062C00B
:10015000019690930101809300012B9A80910001F8
:10016000909101010E94490189E391E00E943701C9
:1001700051C080913C01882309F44CC0809100015A
:10018000909101018131910508F444C00197909349
:100190000101809300012C9A2C988091000190918C
:1001A00001010E94490189E391E00E94370132C0B8
:1001B0008FE091E00E94370180913C01882351F14A
:1001C00081E080933A012D9A2D9824C08CE091E033
:1001D0000E94370180913C018823E1F010923A019E
:1001E0002D9818C080E291E00E94370180913B0178
:1001F000811110C081E080933B01289A0BC08DE1F2
:1002000091E00E94370180913B01882319F0109200
:100210003B012898FF91EF91BF91AF919F918F91F2
:100220007F916F915F914F913F912F910F900FBEF2
:100230000F901F9018951092C50087E68093C40018
:1002400088E98093C1008EE08093C2000895E0ECBD
:10025000F0E0908195FFFDCF8093C6000895E0EC1B
:10026000F0E080818823ECF78091C6000895CF9359
:10027000DF93EC018881882331F021960E942701C9
:1002800089918111FBCF8DE00E942701DF91CF91F1
:100290000895EF92FF920F931F93CF93DF93EC019A
:1002A0008436910520F48A30910560F058C0883E6C
:1002B00023E0920708F4A6C0803137E2930708F4E0
:1002C000FCC055C19C0136952795369527953695E6
:1002D0002795A5ECB0E20E94C402929582958F709A
:1002E00089279F70892748EE53E0849F9001859F5E
:1002F000300D949F300D1124C21BD30B9E013695F7
:10030000279536952795ABE7B4E10E94C4029695F0
:10031000879544E6489F9001499F300D1124C21BE8
:10032000D30B9E01ADECBCEC0E94C4029695879560
:1003300096958795969587959C01220F331F880F78
:10034000991F880F991F880F991F820F931F9E0175
:10035000281B390BC901805D0E94270108C19C013F
:10036000369527953695279536952795A5ECB0E2D5
:100370000E94C402929582958F7089279F70892769
:1003800048EE53E0849F9001859F300D949F300D7F
:100390001124C21BD30B9E013695279536952795C0
:1003A000ABE7B4E10E94C4028C011695079524E6E0
:1003B000209FC001219F900D11248E01081B190B55
:1003C0009801ADECBCEC0E94C402EC01D695C79537
:1003D000D695C795D695C7958C2F805D0E9427012D
:1003E000CE01880F991FCC0FDD1FCC0FDD1FCC0F66
:1003F000DD1FC80FD91FC8018C1B9D0B805D0E949B
:100400002701B5C09C0136952795369527953695D9
:100410002795A5ECB0E20E94C4027C01F694E79413
:10042000F694E794F694E794F694E79428EE33E094
:10043000E29EC001E39E900DF29E900D11247E017C
:10044000E81AF90A97013695279536952795ABE76F
:10045000B4E10E94C4028C011695079580E3800FD9
:100460000E94270124E6209FC001219F900D1124A6
:10047000E701C81BD90B9E01ADECBCEC0E94C40285
:100480008C0116950795169507951695079580E3A7
:10049000800F0E942701C801880F991F000F111FAC
:1004A000000F111F000F111F080F191FCE01801B15
:1004B000910B805D0E9427015AC09C0136952795BB
:1004C0003695279536952795A5ECB0E20E94C40293
:1004D0008C01129502950F7001271F70012780E390
:1004E000800F0E94270128EE33E0029FC001039F86
:1004F000900D129F900D1124C81BD90B9E013695AB
:10050000279536952795ABE7B4E10E94C4028C018C
:100510001695079580E3800F0E94270124E6209F0F
:10052000C001219F900D1124C81BD90B9E01ADEC79
:10053000BCEC0E94C4028C01169507951695079590
:100540001695079580E3800F0E942701C801880F48
:10055000991F000F111F000F111F000F111F080F0F
:10056000191FCE01801B910B805D0E942701DF9136
:10057000CF911F910F91FF90EF900895EE0FFF1F05
:100580000590F491E02D0994A29FB001B39FC001A2
:10059000A39F700D811D1124911DB29F700D811DAF
:0A05A0001124911D0895F894FFCF77
:1005AA0014004445534C494741444F004445534C79
:1005BA004947412056454E54494C415200444553FF
:1005CA00434F4E45435441444F20434F4D204F2003
:0A05DA00424C5545544F4F54480061
:00000001FF
